{
  "_format": "hh-sol-artifact-1",
  "contractName": "Zap",
  "sourceName": "contracts/Zap.sol",
  "abi": [
    {
      "anonymous": false,
      "inputs": [
        {
          "indexed": true,
          "internalType": "address",
          "name": "previousOwner",
          "type": "address"
        },
        {
          "indexed": true,
          "internalType": "address",
          "name": "newOwner",
          "type": "address"
        }
      ],
      "name": "OwnershipTransferred",
      "type": "event"
    },
    {
      "inputs": [],
      "name": "DAI",
      "outputs": [
        {
          "internalType": "address",
          "name": "",
          "type": "address"
        }
      ],
      "stateMutability": "view",
      "type": "function"
    },
    {
      "inputs": [],
      "name": "USDT",
      "outputs": [
        {
          "internalType": "address",
          "name": "",
          "type": "address"
        }
      ],
      "stateMutability": "view",
      "type": "function"
    },
    {
      "inputs": [],
      "name": "WETH",
      "outputs": [
        {
          "internalType": "address",
          "name": "",
          "type": "address"
        }
      ],
      "stateMutability": "view",
      "type": "function"
    },
    {
      "inputs": [
        {
          "internalType": "address",
          "name": "_token0",
          "type": "address"
        },
        {
          "internalType": "address",
          "name": "_token1",
          "type": "address"
        },
        {
          "internalType": "address",
          "name": "_intermediateAddress",
          "type": "address"
        }
      ],
      "name": "addIntermediateToken",
      "outputs": [],
      "stateMutability": "nonpayable",
      "type": "function"
    },
    {
      "inputs": [
        {
          "internalType": "address",
          "name": "_router",
          "type": "address"
        },
        {
          "internalType": "address",
          "name": "_factory",
          "type": "address"
        }
      ],
      "name": "initialize",
      "outputs": [],
      "stateMutability": "nonpayable",
      "type": "function"
    },
    {
      "inputs": [],
      "name": "FACTORY",
      "outputs": [
        {
          "internalType": "contract IUniswapV2Factory",
          "name": "",
          "type": "address"
        }
      ],
      "stateMutability": "view",
      "type": "function"
    },
    {
      "inputs": [],
      "name": "ROUTER",
      "outputs": [
        {
          "internalType": "contract IUniswapV2Router02",
          "name": "",
          "type": "address"
        }
      ],
      "stateMutability": "view",
      "type": "function"
    },
    {
      "inputs": [
        {
          "internalType": "address",
          "name": "_address",
          "type": "address"
        }
      ],
      "name": "isLP",
      "outputs": [
        {
          "internalType": "bool",
          "name": "",
          "type": "bool"
        }
      ],
      "stateMutability": "view",
      "type": "function"
    },
    {
      "inputs": [],
      "name": "owner",
      "outputs": [
        {
          "internalType": "address",
          "name": "",
          "type": "address"
        }
      ],
      "stateMutability": "view",
      "type": "function"
    },
    {
      "inputs": [
        {
          "internalType": "address",
          "name": "_token0",
          "type": "address"
        },
        {
          "internalType": "address",
          "name": "_token1",
          "type": "address"
        }
      ],
      "name": "removeIntermediateToken",
      "outputs": [],
      "stateMutability": "nonpayable",
      "type": "function"
    },
    {
      "inputs": [
        {
          "internalType": "uint256",
          "name": "i",
          "type": "uint256"
        }
      ],
      "name": "removeToken",
      "outputs": [],
      "stateMutability": "nonpayable",
      "type": "function"
    },
    {
      "inputs": [],
      "name": "renounceOwnership",
      "outputs": [],
      "stateMutability": "nonpayable",
      "type": "function"
    },
    {
      "inputs": [
        {
          "internalType": "address",
          "name": "_address",
          "type": "address"
        }
      ],
      "name": "routePair",
      "outputs": [
        {
          "internalType": "address",
          "name": "",
          "type": "address"
        }
      ],
      "stateMutability": "view",
      "type": "function"
    },
    {
      "inputs": [
        {
          "internalType": "address",
          "name": "token",
          "type": "address"
        }
      ],
      "name": "setNotLP",
      "outputs": [],
      "stateMutability": "nonpayable",
      "type": "function"
    },
    {
      "inputs": [
        {
          "internalType": "address",
          "name": "asset",
          "type": "address"
        },
        {
          "internalType": "address",
          "name": "route",
          "type": "address"
        }
      ],
      "name": "setRoutePairAddress",
      "outputs": [],
      "stateMutability": "nonpayable",
      "type": "function"
    },
    {
      "inputs": [],
      "name": "sweep",
      "outputs": [],
      "stateMutability": "nonpayable",
      "type": "function"
    },
    {
      "inputs": [
        {
          "internalType": "uint256",
          "name": "",
          "type": "uint256"
        }
      ],
      "name": "tokens",
      "outputs": [
        {
          "internalType": "address",
          "name": "",
          "type": "address"
        }
      ],
      "stateMutability": "view",
      "type": "function"
    },
    {
      "inputs": [
        {
          "internalType": "address",
          "name": "newOwner",
          "type": "address"
        }
      ],
      "name": "transferOwnership",
      "outputs": [],
      "stateMutability": "nonpayable",
      "type": "function"
    },
    {
      "inputs": [
        {
          "internalType": "address",
          "name": "token",
          "type": "address"
        }
      ],
      "name": "withdraw",
      "outputs": [],
      "stateMutability": "nonpayable",
      "type": "function"
    },
    {
      "inputs": [
        {
          "internalType": "address",
          "name": "_to",
          "type": "address"
        },
        {
          "internalType": "address",
          "name": "_farmingPool",
          "type": "address"
        },
        {
          "internalType": "address",
          "name": "_receiver",
          "type": "address"
        }
      ],
      "name": "zapAndFarm",
      "outputs": [],
      "stateMutability": "payable",
      "type": "function"
    },
    {
      "inputs": [
        {
          "internalType": "address",
          "name": "_from",
          "type": "address"
        },
        {
          "internalType": "uint256",
          "name": "amount",
          "type": "uint256"
        },
        {
          "internalType": "address",
          "name": "_to",
          "type": "address"
        },
        {
          "internalType": "address",
          "name": "_farmingPool",
          "type": "address"
        },
        {
          "internalType": "address",
          "name": "_receiver",
          "type": "address"
        }
      ],
      "name": "zapAndFarmToken",
      "outputs": [],
      "stateMutability": "nonpayable",
      "type": "function"
    },
    {
      "inputs": [
        {
          "internalType": "address",
          "name": "_from",
          "type": "address"
        },
        {
          "internalType": "uint256",
          "name": "amount",
          "type": "uint256"
        },
        {
          "internalType": "address",
          "name": "_to",
          "type": "address"
        },
        {
          "internalType": "address",
          "name": "_farmingPool",
          "type": "address"
        },
        {
          "internalType": "address",
          "name": "_receiver",
          "type": "address"
        }
      ],
      "name": "zapAndFarmTokenV2",
      "outputs": [],
      "stateMutability": "nonpayable",
      "type": "function"
    },
    {
      "inputs": [
        {
          "internalType": "address",
          "name": "_to",
          "type": "address"
        },
        {
          "internalType": "address",
          "name": "_receiver",
          "type": "address"
        }
      ],
      "name": "zapIn",
      "outputs": [],
      "stateMutability": "payable",
      "type": "function"
    },
    {
      "inputs": [
        {
          "internalType": "address",
          "name": "_from",
          "type": "address"
        },
        {
          "internalType": "uint256",
          "name": "amount",
          "type": "uint256"
        },
        {
          "internalType": "address",
          "name": "_to",
          "type": "address"
        },
        {
          "internalType": "address",
          "name": "_receiver",
          "type": "address"
        }
      ],
      "name": "zapInToken",
      "outputs": [],
      "stateMutability": "nonpayable",
      "type": "function"
    },
    {
      "inputs": [
        {
          "internalType": "address",
          "name": "_from",
          "type": "address"
        },
        {
          "internalType": "uint256",
          "name": "amount",
          "type": "uint256"
        },
        {
          "internalType": "address",
          "name": "_to",
          "type": "address"
        },
        {
          "internalType": "address",
          "name": "_receiver",
          "type": "address"
        }
      ],
      "name": "zapInTokenV2",
      "outputs": [],
      "stateMutability": "nonpayable",
      "type": "function"
    },
    {
      "inputs": [
        {
          "internalType": "address",
          "name": "_from",
          "type": "address"
        },
        {
          "internalType": "uint256",
          "name": "amount",
          "type": "uint256"
        },
        {
          "internalType": "address",
          "name": "_receiver",
          "type": "address"
        }
      ],
      "name": "zapOut",
      "outputs": [],
      "stateMutability": "nonpayable",
      "type": "function"
    },
    {
      "stateMutability": "payable",
      "type": "receive"
    }
  ],
  "bytecode": "0x608060405234801561001057600080fd5b50613927806100206000396000f3fe60806040526004361061018f5760003560e01c80638da5cb5b116100d6578063c54e44eb1161007f578063e0bab4c411610059578063e0bab4c41461047b578063f2fde38b146104a3578063f9d6d5a7146104c357600080fd5b8063c54e44eb14610413578063d63218031461043b578063da3de8b21461045b57600080fd5b8063985c9d56116100b0578063985c9d5614610392578063ad5c4648146103cb578063bdc49cd4146103f357600080fd5b80638da5cb5b146103345780638db7beb714610352578063934ff8ce1461037257600080fd5b8063485cc9551161013857806369a511b21161011257806369a511b2146102c2578063715018a6146102d55780637df0f767146102ea57600080fd5b8063485cc955146102455780634f64b2be1461026557806351cff8d9146102a257600080fd5b806326dba3681161016957806326dba368146101f057806335faa4161461021057806336c5d7241461022557600080fd5b806318f285441461019b5780631c286c8a146101b05780631eff9adb146101d057600080fd5b3661019657005b600080fd5b6101ae6101a9366004613481565b6104e3565b005b3480156101bc57600080fd5b506101ae6101cb366004613448565b61071d565b3480156101dc57600080fd5b506101ae6101eb36600461340e565b6107a5565b3480156101fc57600080fd5b506101ae61020b366004613556565b61087e565b34801561021c57600080fd5b506101ae610abf565b34801561023157600080fd5b506101ae6102403660046136a5565b610cdb565b34801561025157600080fd5b506101ae610260366004613448565b610e2b565b34801561027157600080fd5b506102856102803660046136a5565b610fda565b6040516001600160a01b0390911681526020015b60405180910390f35b3480156102ae57600080fd5b506101ae6102bd36600461340e565b611004565b6101ae6102d0366004613448565b6111bb565b3480156102e157600080fd5b506101ae6111c6565b3480156102f657600080fd5b5061032461030536600461340e565b6001600160a01b031660009081526067602052604090205460ff161590565b6040519015158152602001610299565b34801561034057600080fd5b506033546001600160a01b0316610285565b34801561035e57600080fd5b506101ae61036d366004613503565b61122c565b34801561037e57600080fd5b506101ae61038d366004613503565b6115c3565b34801561039e57600080fd5b506102856103ad36600461340e565b6001600160a01b039081166000908152606860205260409020541690565b3480156103d757600080fd5b5061028573b31f66aa3c1e785363f0875a1b74e27b85fd66c781565b3480156103ff57600080fd5b506101ae61040e3660046134cc565b61176a565b34801561041f57600080fd5b5061028573de3a24028580884448a5397872046a019649b08481565b34801561044757600080fd5b506101ae610456366004613448565b611a7e565b34801561046757600080fd5b506101ae610476366004613556565b611aab565b34801561048757600080fd5b5061028573ba7deebbfc5fa1100fb055a87773e1e99cd3507a81565b3480156104af57600080fd5b506101ae6104be36600461340e565b611b14565b3480156104cf57600080fd5b506101ae6104de366004613481565b611bf3565b6001600160a01b03831660009081526067602052604090205460ff161561053c5760405162461bcd60e51b815260206004820152600860248201526705a41503a204e4c560c41b60448201526064015b60405180910390fd5b610547833430611c31565b6040516370a0823160e01b81523060048201526001600160a01b038084169163a694fc3a918616906370a082319060240160206040518083038186803b15801561059057600080fd5b505afa1580156105a4573d6000803e3d6000fd5b505050506040513d601f19601f820116820180604052508101906105c891906136be565b6040518263ffffffff1660e01b81526004016105e691815260200190565b600060405180830381600087803b15801561060057600080fd5b505af1158015610614573d6000803e3d6000fd5b50506040516370a0823160e01b81523060048201526001600160a01b038516925063a9059cbb9150839083906370a082319060240160206040518083038186803b15801561066157600080fd5b505afa158015610675573d6000803e3d6000fd5b505050506040513d601f19601f8201168201806040525081019061069991906136be565b6040516001600160e01b031960e085901b1681526001600160a01b0390921660048301526024820152604401602060405180830381600087803b1580156106df57600080fd5b505af11580156106f3573d6000803e3d6000fd5b505050506040513d601f19601f820116820180604052508101906107179190613683565b50505050565b6033546001600160a01b031633146107775760405162461bcd60e51b815260206004820181905260248201527f4f776e61626c653a2063616c6c6572206973206e6f7420746865206f776e65726044820152606401610533565b6001600160a01b03918216600090815260686020526040902080546001600160a01b03191691909216179055565b6033546001600160a01b031633146107ff5760405162461bcd60e51b815260206004820181905260248201527f4f776e61626c653a2063616c6c6572206973206e6f7420746865206f776e65726044820152606401610533565b6001600160a01b0381166000908152606760205260409020805460ff19811660011790915560ff1615801561087a57606a80546001810182556000919091527f116fea137db6e131133e7f2bab296045d8f41cc5607279db17b218cab0929a510180546001600160a01b0319166001600160a01b0384161790555b5050565b6001600160a01b03831660009081526067602052604090205460ff16156108d25760405162461bcd60e51b815260206004820152600860248201526705a41503a204e4c560c41b6044820152606401610533565b6108db85611fb7565b6108e7858585306115c3565b6040516370a0823160e01b81523060048201526001600160a01b038084169163a694fc3a918616906370a082319060240160206040518083038186803b15801561093057600080fd5b505afa158015610944573d6000803e3d6000fd5b505050506040513d601f19601f8201168201806040525081019061096891906136be565b6040518263ffffffff1660e01b815260040161098691815260200190565b600060405180830381600087803b1580156109a057600080fd5b505af11580156109b4573d6000803e3d6000fd5b50506040516370a0823160e01b81523060048201526001600160a01b038516925063a9059cbb9150839083906370a082319060240160206040518083038186803b158015610a0157600080fd5b505afa158015610a15573d6000803e3d6000fd5b505050506040513d601f19601f82011682018060405250810190610a3991906136be565b6040516001600160e01b031960e085901b1681526001600160a01b0390921660048301526024820152604401602060405180830381600087803b158015610a7f57600080fd5b505af1158015610a93573d6000803e3d6000fd5b505050506040513d601f19601f82011682018060405250810190610ab79190613683565b505050505050565b6033546001600160a01b03163314610b195760405162461bcd60e51b815260206004820181905260248201527f4f776e61626c653a2063616c6c6572206973206e6f7420746865206f776e65726044820152606401610533565b60005b606a54811015610c96576000606a8281548110610b3b57610b3b6138d9565b6000918252602090912001546001600160a01b0316905080610b5d5750610c84565b6040516370a0823160e01b81523060048201526000906001600160a01b038316906370a082319060240160206040518083038186803b158015610b9f57600080fd5b505afa158015610bb3573d6000803e3d6000fd5b505050506040513d601f19601f82011682018060405250810190610bd791906136be565b90508015610c81576001600160a01b03821673b31f66aa3c1e785363f0875a1b74e27b85fd66c71415610c6357604051632e1a7d4d60e01b8152600481018290526001600160a01b03831690632e1a7d4d90602401600060405180830381600087803b158015610c4657600080fd5b505af1158015610c5a573d6000803e3d6000fd5b50505050610c81565b610c7f8282610c7a6033546001600160a01b031690565b61205a565b505b50505b80610c8e81613892565b915050610b1c565b50478015610cd8576033546040516001600160a01b039091169082156108fc029083906000818181858888f1935050505015801561087a573d6000803e3d6000fd5b50565b6033546001600160a01b03163314610d355760405162461bcd60e51b815260206004820181905260248201527f4f776e61626c653a2063616c6c6572206973206e6f7420746865206f776e65726044820152606401610533565b6000606a8281548110610d4a57610d4a6138d9565b60009182526020808320909101546001600160a01b031680835260679091526040909120805460ff19169055606a805491925090610d8a9060019061384f565b81548110610d9a57610d9a6138d9565b600091825260209091200154606a80546001600160a01b039092169184908110610dc657610dc66138d9565b9060005260206000200160006101000a8154816001600160a01b0302191690836001600160a01b03160217905550606a805480610e0557610e056138c3565b600082815260209020810160001990810180546001600160a01b03191690550190555050565b600054610100900460ff1680610e44575060005460ff16155b610ea75760405162461bcd60e51b815260206004820152602e60248201527f496e697469616c697a61626c653a20636f6e747261637420697320616c72656160448201526d191e481a5b9a5d1a585b1a5e995960921b6064820152608401610533565b600054610100900460ff16158015610ec9576000805461ffff19166101011790555b610ed16122c6565b6000610ee56033546001600160a01b031690565b6001600160a01b03161415610f3c5760405162461bcd60e51b815260206004820152601960248201527f5a61704554483a206f776e6572206d75737420626520736574000000000000006044820152606401610533565b606580546001600160a01b038086166001600160a01b0319928316179092556066805492851692909116919091179055610f8973b31f66aa3c1e785363f0875a1b74e27b85fd66c76107a5565b610fa673de3a24028580884448a5397872046a019649b0846107a5565b610fc373ba7deebbfc5fa1100fb055a87773e1e99cd3507a6107a5565b8015610fd5576000805461ff00191690555b505050565b606a8181548110610fea57600080fd5b6000918252602090912001546001600160a01b0316905081565b6033546001600160a01b0316331461105e5760405162461bcd60e51b815260206004820181905260248201527f4f776e61626c653a2063616c6c6572206973206e6f7420746865206f776e65726044820152606401610533565b6001600160a01b0381166110a5576033546040516001600160a01b03909116904780156108fc02916000818181858888f1935050505015801561087a573d6000803e3d6000fd5b806001600160a01b031663a9059cbb6110c66033546001600160a01b031690565b6040516370a0823160e01b81523060048201526001600160a01b038516906370a082319060240160206040518083038186803b15801561110557600080fd5b505afa158015611119573d6000803e3d6000fd5b505050506040513d601f19601f8201168201806040525081019061113d91906136be565b6040516001600160e01b031960e085901b1681526001600160a01b0390921660048301526024820152604401602060405180830381600087803b15801561118357600080fd5b505af1158015611197573d6000803e3d6000fd5b505050506040513d601f19601f8201168201806040525081019061087a9190613683565b61087a823483611c31565b6033546001600160a01b031633146112205760405162461bcd60e51b815260206004820181905260248201527f4f776e61626c653a2063616c6c6572206973206e6f7420746865206f776e65726044820152606401610533565b61122a6000612388565b565b6112416001600160a01b0385163330866123da565b61124a84611fb7565b6001600160a01b03821660009081526067602052604090205460ff166115b05760008290506000816001600160a01b0316630dfe16816040518163ffffffff1660e01b815260040160206040518083038186803b1580156112aa57600080fd5b505afa1580156112be573d6000803e3d6000fd5b505050506040513d601f19601f820116820180604052508101906112e2919061342b565b90506000826001600160a01b031663d21220a76040518163ffffffff1660e01b815260040160206040518083038186803b15801561131f57600080fd5b505afa158015611333573d6000803e3d6000fd5b505050506040513d601f19601f82011682018060405250810190611357919061342b565b9050816001600160a01b0316876001600160a01b0316148061138a5750806001600160a01b0316876001600160a01b0316145b156114af576000826001600160a01b0316886001600160a01b0316146113b057826113b2565b815b90506113bd81611fb7565b60006113ca60028961382d565b905060006113da8a83853061245a565b6065549091506001600160a01b031663e8e337008b856113fa868e61384f565b6040516001600160e01b031960e086901b1681526001600160a01b039384166004820152918316602483015260448201526064810185905260006084820181905260a4820152908a1660c48201524260e482015261010401606060405180830381600087803b15801561146c57600080fd5b505af1158015611480573d6000803e3d6000fd5b505050506040513d601f19601f820116820180604052508101906114a491906136fb565b5050505050506115a8565b6114b885611fb7565b60006114c560028861382d565b905060006114d58983863061245a565b905060006114ee8a6114e7858c61384f565b863061245a565b60655460405162e8e33760e81b81526001600160a01b0388811660048301528781166024830152604482018690526064820184905260006084830181905260a48301528a811660c48301524260e483015292935091169063e8e337009061010401606060405180830381600087803b15801561156957600080fd5b505af115801561157d573d6000803e3d6000fd5b505050506040513d601f19601f820116820180604052508101906115a191906136fb565b5050505050505b505050610717565b6115bc8484848461245a565b5050505050565b6115d86001600160a01b0385163330866123da565b6115e184611fb7565b6001600160a01b03821660009081526067602052604090205460ff166115b05760008290506000816001600160a01b0316630dfe16816040518163ffffffff1660e01b815260040160206040518083038186803b15801561164157600080fd5b505afa158015611655573d6000803e3d6000fd5b505050506040513d601f19601f82011682018060405250810190611679919061342b565b90506000826001600160a01b031663d21220a76040518163ffffffff1660e01b815260040160206040518083038186803b1580156116b657600080fd5b505afa1580156116ca573d6000803e3d6000fd5b505050506040513d601f19601f820116820180604052508101906116ee919061342b565b9050816001600160a01b0316876001600160a01b031614806117215750806001600160a01b0316876001600160a01b0316145b15611747576000826001600160a01b0316886001600160a01b0316146113b057826113b2565b600061175488883061205a565b9050611761868287611c31565b50505050610717565b61177f6001600160a01b0384168230856123da565b61178883611fb7565b6001600160a01b03831660009081526067602052604090205460ff16156117b45761071783838361205a565b60008390506000816001600160a01b0316630dfe16816040518163ffffffff1660e01b815260040160206040518083038186803b1580156117f457600080fd5b505afa158015611808573d6000803e3d6000fd5b505050506040513d601f19601f8201168201806040525081019061182c919061342b565b90506000826001600160a01b031663d21220a76040518163ffffffff1660e01b815260040160206040518083038186803b15801561186957600080fd5b505afa15801561187d573d6000803e3d6000fd5b505050506040513d601f19601f820116820180604052508101906118a1919061342b565b90506001600160a01b03821673b31f66aa3c1e785363f0875a1b74e27b85fd66c714806118ea57506001600160a01b03811673b31f66aa3c1e785363f0875a1b74e27b85fd66c7145b156119cb576065546001600160a01b03908116906302751cec90841673b31f66aa3c1e785363f0875a1b74e27b85fd66c714156119275782611929565b835b6040516001600160e01b031960e084901b1681526001600160a01b03918216600482015260248101899052600060448201819052606482015290871660848201524260a482015260c4016040805180830381600087803b15801561198c57600080fd5b505af11580156119a0573d6000803e3d6000fd5b505050506040513d601f19601f820116820180604052508101906119c491906136d7565b5050610ab7565b606554604051635d5155ef60e11b81526001600160a01b038481166004830152838116602483015260448201889052600060648301819052608483015286811660a48301524260c48301529091169063baa2abde9060e4016040805180830381600087803b158015611a3c57600080fd5b505af1158015611a50573d6000803e3d6000fd5b505050506040513d601f19601f82011682018060405250810190611a7491906136d7565b5050505050505050565b6000611a8a8383612c6f565b600090815260696020526040902080546001600160a01b0319169055505050565b6001600160a01b03831660009081526067602052604090205460ff1615611aff5760405162461bcd60e51b815260206004820152600860248201526705a41503a204e4c560c41b6044820152606401610533565b611b0885611fb7565b6108e78585853061122c565b6033546001600160a01b03163314611b6e5760405162461bcd60e51b815260206004820181905260248201527f4f776e61626c653a2063616c6c6572206973206e6f7420746865206f776e65726044820152606401610533565b6001600160a01b038116611bea5760405162461bcd60e51b815260206004820152602660248201527f4f776e61626c653a206e6577206f776e657220697320746865207a65726f206160448201527f64647265737300000000000000000000000000000000000000000000000000006064820152608401610533565b610cd881612388565b6000611bff8484612c6f565b600090815260696020526040902080546001600160a01b0319166001600160a01b039390931692909217909155505050565b6001600160a01b03831660009081526067602052604090205460ff1615611c5d57610717838383612ce0565b60008390506000816001600160a01b0316630dfe16816040518163ffffffff1660e01b815260040160206040518083038186803b158015611c9d57600080fd5b505afa158015611cb1573d6000803e3d6000fd5b505050506040513d601f19601f82011682018060405250810190611cd5919061342b565b90506000826001600160a01b031663d21220a76040518163ffffffff1660e01b815260040160206040518083038186803b158015611d1257600080fd5b505afa158015611d26573d6000803e3d6000fd5b505050506040513d601f19601f82011682018060405250810190611d4a919061342b565b90506001600160a01b03821673b31f66aa3c1e785363f0875a1b74e27b85fd66c71480611d9357506001600160a01b03811673b31f66aa3c1e785363f0875a1b74e27b85fd66c7145b15611eb05760006001600160a01b03831673b31f66aa3c1e785363f0875a1b74e27b85fd66c714611dc45782611dc6565b815b90506000611dd560028861382d565b90506000611de4838330612ce0565b9050611def83611fb7565b6065546001600160a01b031663f305d719611e0a848b61384f565b6040516001600160e01b031960e084901b1681526001600160a01b0380881660048301526024820186905260006044830181905260648301528b1660848201524260a482015260c4016060604051808303818588803b158015611e6c57600080fd5b505af1158015611e80573d6000803e3d6000fd5b50505050506040513d601f19601f82011682018060405250810190611ea591906136fb565b505050505050610ab7565b6000611ebd60028761384f565b90506000611ecc848330612ce0565b90506000611ee484611ede858b61384f565b30612ce0565b9050611eef85611fb7565b611ef884611fb7565b60655460405162e8e33760e81b81526001600160a01b0387811660048301528681166024830152604482018590526064820184905260006084830181905260a483015289811660c48301524260e48301529091169063e8e337009061010401606060405180830381600087803b158015611f7157600080fd5b505af1158015611f85573d6000803e3d6000fd5b505050506040513d601f19601f82011682018060405250810190611fa991906136fb565b505050505050505050505050565b606554604051636eb1769f60e11b81523060048201526001600160a01b0391821660248201529082169063dd62ed3e9060440160206040518083038186803b15801561200257600080fd5b505afa158015612016573d6000803e3d6000fd5b505050506040513d601f19601f8201168201806040525081019061203a91906136be565b610cd857606554610cd8906001600160a01b038381169116600019612f17565b6001600160a01b03838116600090815260686020526040812054909160609116156121655760408051600380825260808201909252906020820160608036833701905050905084816000815181106120b4576120b46138d9565b6001600160a01b039283166020918202929092018101919091528682166000908152606890915260409020548251911690829060019081106120f8576120f86138d9565b60200260200101906001600160a01b031690816001600160a01b03168152505073b31f66aa3c1e785363f0875a1b74e27b85fd66c781600281518110612140576121406138d9565b60200260200101906001600160a01b031690816001600160a01b031681525050612202565b60408051600280825260608201835290916020830190803683370190505090508481600081518110612199576121996138d9565b60200260200101906001600160a01b031690816001600160a01b03168152505073b31f66aa3c1e785363f0875a1b74e27b85fd66c7816001815181106121e1576121e16138d9565b60200260200101906001600160a01b031690816001600160a01b0316815250505b6065546040516318cbafe560e01b81526000916001600160a01b0316906318cbafe59061223b908890859087908a9042906004016137f1565b600060405180830381600087803b15801561225557600080fd5b505af1158015612269573d6000803e3d6000fd5b505050506040513d6000823e601f3d908101601f1916820160405261229191908101906135be565b905080600182516122a2919061384f565b815181106122b2576122b26138d9565b6020026020010151925050505b9392505050565b600054610100900460ff16806122df575060005460ff16155b6123425760405162461bcd60e51b815260206004820152602e60248201527f496e697469616c697a61626c653a20636f6e747261637420697320616c72656160448201526d191e481a5b9a5d1a585b1a5e995960921b6064820152608401610533565b600054610100900460ff16158015612364576000805461ffff19166101011790555b61236c613042565b6123746130f3565b8015610cd8576000805461ff001916905550565b603380546001600160a01b038381166001600160a01b0319831681179093556040519116919082907f8be0079c531659141344cd1fd0a4f28419497f9722a3daafe3b4186f6b6457e090600090a35050565b6040516001600160a01b03808516602483015283166044820152606481018290526107179085906323b872dd60e01b906084015b60408051601f198184030181529190526020810180517bffffffffffffffffffffffffffffffffffffffffffffffffffffffff166001600160e01b03199093169290921790915261319a565b6001600160a01b038085166000908152606860205260408120549091168061249957506001600160a01b03808416600090815260686020526040902054165b60606001600160a01b038216158015906124f557506001600160a01b03871673b31f66aa3c1e785363f0875a1b74e27b85fd66c714806124f557506001600160a01b03851673b31f66aa3c1e785363f0875a1b74e27b85fd66c7145b156125ca5760035b604051908082528060200260200182016040528015612526578160200160208202803683370190505b509050868160008151811061253d5761253d6138d9565b60200260200101906001600160a01b031690816001600160a01b0316815250508181600181518110612571576125716138d9565b60200260200101906001600160a01b031690816001600160a01b03168152505084816002815181106125a5576125a56138d9565b60200260200101906001600160a01b031690816001600160a01b031681525050612baa565b6001600160a01b0382161580159061260e5750816001600160a01b0316876001600160a01b0316148061260e5750816001600160a01b0316856001600160a01b0316145b1561268a5760025b60405190808252806020026020018201604052801561263f578160200160208202803683370190505b5090508681600081518110612656576126566138d9565b60200260200101906001600160a01b031690816001600160a01b03168152505084816001815181106125a5576125a56138d9565b6001600160a01b038216158015906126c657506001600160a01b03808616600090815260686020526040808220548a8416835291205482169116145b156126d25760036124fd565b6001600160a01b03878116600090815260686020526040902054161580159061271457506001600160a01b038581166000908152606860205260409020541615155b801561274557506001600160a01b03808616600090815260686020526040808220548a841683529120548216911614155b156128835760408051600580825260c08201909252906020820160a080368337019050509050868160008151811061277f5761277f6138d9565b6001600160a01b039283166020918202929092018101919091528882166000908152606890915260409020548251911690829060019081106127c3576127c36138d9565b60200260200101906001600160a01b031690816001600160a01b03168152505073b31f66aa3c1e785363f0875a1b74e27b85fd66c78160028151811061280b5761280b6138d9565b6001600160a01b0392831660209182029290920181019190915286821660009081526068909152604090205482519116908290600390811061284f5761284f6138d9565b60200260200101906001600160a01b031690816001600160a01b03168152505084816004815181106125a5576125a56138d9565b6001600160a01b038216158015906128b457506001600160a01b038781166000908152606860205260409020541615155b1561299e5760408051600480825260a08201909252906020820160808036833701905050905086816000815181106128ee576128ee6138d9565b60200260200101906001600160a01b031690816001600160a01b0316815250508181600181518110612922576129226138d9565b60200260200101906001600160a01b031690816001600160a01b03168152505073b31f66aa3c1e785363f0875a1b74e27b85fd66c78160028151811061296a5761296a6138d9565b60200260200101906001600160a01b031690816001600160a01b03168152505084816003815181106125a5576125a56138d9565b6001600160a01b038216158015906129cf57506001600160a01b038581166000908152606860205260409020541615155b15612a855760408051600480825260a0820190925290602082016080803683370190505090508681600081518110612a0957612a096138d9565b60200260200101906001600160a01b031690816001600160a01b03168152505073b31f66aa3c1e785363f0875a1b74e27b85fd66c781600181518110612a5157612a516138d9565b60200260200101906001600160a01b031690816001600160a01b031681525050818160028151811061296a5761296a6138d9565b6001600160a01b03871673b31f66aa3c1e785363f0875a1b74e27b85fd66c71480612acc57506001600160a01b03851673b31f66aa3c1e785363f0875a1b74e27b85fd66c7145b15612ad8576002612616565b6040805160038082526080820190925290602082016060803683370190505090508681600081518110612b0d57612b0d6138d9565b60200260200101906001600160a01b031690816001600160a01b03168152505073b31f66aa3c1e785363f0875a1b74e27b85fd66c781600181518110612b5557612b556138d9565b60200260200101906001600160a01b031690816001600160a01b0316815250508481600281518110612b8957612b896138d9565b60200260200101906001600160a01b031690816001600160a01b0316815250505b6065546040516338ed173960e01b81526000916001600160a01b0316906338ed173990612be3908a90859087908b9042906004016137f1565b600060405180830381600087803b158015612bfd57600080fd5b505af1158015612c11573d6000803e3d6000fd5b505050506040513d6000823e601f3d908101601f19168201604052612c3991908101906135be565b90508060018251612c4a919061384f565b81518110612c5a57612c5a6138d9565b60200260200101519350505050949350505050565b6000816001600160a01b0316836001600160a01b031610612c91578183612c94565b82825b6040516bffffffffffffffffffffffff19606084811b8216602084015283901b166034820152919450925060480160405160208183030381529060405280519060200120905092915050565b6001600160a01b0383811660009081526068602052604081205490916060911615612deb5760408051600380825260808201909252906020820160608036833701905050905073b31f66aa3c1e785363f0875a1b74e27b85fd66c781600081518110612d4e57612d4e6138d9565b6001600160a01b03928316602091820292909201810191909152868216600090815260689091526040902054825191169082906001908110612d9257612d926138d9565b60200260200101906001600160a01b031690816001600160a01b0316815250508481600281518110612dc657612dc66138d9565b60200260200101906001600160a01b031690816001600160a01b031681525050612e88565b604080516002808252606082018352909160208301908036833701905050905073b31f66aa3c1e785363f0875a1b74e27b85fd66c781600081518110612e3357612e336138d9565b60200260200101906001600160a01b031690816001600160a01b0316815250508481600181518110612e6757612e676138d9565b60200260200101906001600160a01b031690816001600160a01b0316815250505b606554604051637ff36ab560e01b81526000916001600160a01b031690637ff36ab5908790612ec190859087908a904290600401613789565b6000604051808303818588803b158015612eda57600080fd5b505af1158015612eee573d6000803e3d6000fd5b50505050506040513d6000823e601f3d908101601f1916820160405261229191908101906135be565b801580612fa05750604051636eb1769f60e11b81523060048201526001600160a01b03838116602483015284169063dd62ed3e9060440160206040518083038186803b158015612f6657600080fd5b505afa158015612f7a573d6000803e3d6000fd5b505050506040513d601f19601f82011682018060405250810190612f9e91906136be565b155b6130125760405162461bcd60e51b815260206004820152603660248201527f5361666545524332303a20617070726f76652066726f6d206e6f6e2d7a65726f60448201527f20746f206e6f6e2d7a65726f20616c6c6f77616e6365000000000000000000006064820152608401610533565b6040516001600160a01b038316602482015260448101829052610fd590849063095ea7b360e01b9060640161240e565b600054610100900460ff168061305b575060005460ff16155b6130be5760405162461bcd60e51b815260206004820152602e60248201527f496e697469616c697a61626c653a20636f6e747261637420697320616c72656160448201526d191e481a5b9a5d1a585b1a5e995960921b6064820152608401610533565b600054610100900460ff16158015612374576000805461ffff19166101011790558015610cd8576000805461ff001916905550565b600054610100900460ff168061310c575060005460ff16155b61316f5760405162461bcd60e51b815260206004820152602e60248201527f496e697469616c697a61626c653a20636f6e747261637420697320616c72656160448201526d191e481a5b9a5d1a585b1a5e995960921b6064820152608401610533565b600054610100900460ff16158015613191576000805461ffff19166101011790555b61237433612388565b60006131ef826040518060400160405280602081526020017f5361666545524332303a206c6f772d6c6576656c2063616c6c206661696c6564815250856001600160a01b031661327f9092919063ffffffff16565b805190915015610fd5578080602001905181019061320d9190613683565b610fd55760405162461bcd60e51b815260206004820152602a60248201527f5361666545524332303a204552433230206f7065726174696f6e20646964206e60448201527f6f742073756363656564000000000000000000000000000000000000000000006064820152608401610533565b606061328e8484600085613296565b949350505050565b60608247101561330e5760405162461bcd60e51b815260206004820152602660248201527f416464726573733a20696e73756666696369656e742062616c616e636520666f60448201527f722063616c6c00000000000000000000000000000000000000000000000000006064820152608401610533565b843b61335c5760405162461bcd60e51b815260206004820152601d60248201527f416464726573733a2063616c6c20746f206e6f6e2d636f6e74726163740000006044820152606401610533565b600080866001600160a01b03168587604051613378919061376d565b60006040518083038185875af1925050503d80600081146133b5576040519150601f19603f3d011682016040523d82523d6000602084013e6133ba565b606091505b50915091506133ca8282866133d5565b979650505050505050565b606083156133e45750816122bf565b8251156133f45782518084602001fd5b8160405162461bcd60e51b815260040161053391906137be565b60006020828403121561342057600080fd5b81356122bf81613905565b60006020828403121561343d57600080fd5b81516122bf81613905565b6000806040838503121561345b57600080fd5b823561346681613905565b9150602083013561347681613905565b809150509250929050565b60008060006060848603121561349657600080fd5b83356134a181613905565b925060208401356134b181613905565b915060408401356134c181613905565b809150509250925092565b6000806000606084860312156134e157600080fd5b83356134ec81613905565b92506020840135915060408401356134c181613905565b6000806000806080858703121561351957600080fd5b843561352481613905565b935060208501359250604085013561353b81613905565b9150606085013561354b81613905565b939692955090935050565b600080600080600060a0868803121561356e57600080fd5b853561357981613905565b945060208601359350604086013561359081613905565b925060608601356135a081613905565b915060808601356135b081613905565b809150509295509295909350565b600060208083850312156135d157600080fd5b825167ffffffffffffffff808211156135e957600080fd5b818501915085601f8301126135fd57600080fd5b81518181111561360f5761360f6138ef565b8060051b604051601f19603f83011681018181108582111715613634576136346138ef565b604052828152858101935084860182860187018a101561365357600080fd5b600095505b83861015613676578051855260019590950194938601938601613658565b5098975050505050505050565b60006020828403121561369557600080fd5b815180151581146122bf57600080fd5b6000602082840312156136b757600080fd5b5035919050565b6000602082840312156136d057600080fd5b5051919050565b600080604083850312156136ea57600080fd5b505080516020909101519092909150565b60008060006060848603121561371057600080fd5b8351925060208401519150604084015190509250925092565b600081518084526020808501945080840160005b838110156137625781516001600160a01b03168752958201959082019060010161373d565b509495945050505050565b6000825161377f818460208701613866565b9190910192915050565b8481526080602082015260006137a26080830186613729565b6001600160a01b03949094166040830152506060015292915050565b60208152600082518060208401526137dd816040850160208701613866565b601f01601f19169190910160400192915050565b85815284602082015260a06040820152600061381060a0830186613729565b6001600160a01b0394909416606083015250608001529392505050565b60008261384a57634e487b7160e01b600052601260045260246000fd5b500490565b600082821015613861576138616138ad565b500390565b60005b83811015613881578181015183820152602001613869565b838111156107175750506000910152565b60006000198214156138a6576138a66138ad565b5060010190565b634e487b7160e01b600052601160045260246000fd5b634e487b7160e01b600052603160045260246000fd5b634e487b7160e01b600052603260045260246000fd5b634e487b7160e01b600052604160045260246000fd5b6001600160a01b0381168114610cd857600080fdfea164736f6c6343000807000a",
  "linkReferences": {},
  "deployedLinkReferences": {}
}