{
  "_format": "hh-sol-artifact-1",
  "contractName": "MockUniswapV3QuoterV2",
  "sourceName": "contracts/mocks/MockUniswapV3QuoterV2.sol",
  "abi": [
    {
      "inputs": [
        {
          "internalType": "address",
          "name": "",
          "type": "address"
        },
        {
          "internalType": "address",
          "name": "",
          "type": "address"
        },
        {
          "internalType": "uint24",
          "name": "",
          "type": "uint24"
        },
        {
          "internalType": "uint256",
          "name": "amountIn",
          "type": "uint256"
        },
        {
          "internalType": "uint160",
          "name": "",
          "type": "uint160"
        }
      ],
      "name": "quoteExactInputSingle",
      "outputs": [
        {
          "internalType": "uint256",
          "name": "amountOut",
          "type": "uint256"
        }
      ],
      "stateMutability": "pure",
      "type": "function"
    }
  ],
  "bytecode": "0x608060405234801561001057600080fd5b50610107806100206000396000f3fe6080604052348015600f57600080fd5b506004361060285760003560e01c8063f7729d4314602d575b600080fd5b604060383660046052565b509392505050565b60405190815260200160405180910390f35b600080600080600060a08688031215606957600080fd5b853560728160ba565b9450602086013560808160ba565b9350604086013562ffffff81168114609757600080fd5b925060608601359150608086013560ac8160ba565b809150509295509295909350565b6001600160a01b038116811460ce57600080fd5b5056fea264697066735822122046adc592a93891787ae4810838142a26292f7c6ab3b383b84c65fb4104e733bf64736f6c63430008060033",
  "linkReferences": {},
  "deployedLinkReferences": {}
}