{
  "_format": "hh-sol-artifact-1",
  "contractName": "TestERC20",
  "sourceName": "contracts/mocks/TestERC20.sol",
  "abi": [
    {
      "inputs": [
        {
          "internalType": "uint256",
          "name": "amountToMint",
          "type": "uint256"
        }
      ],
      "stateMutability": "nonpayable",
      "type": "constructor"
    },
    {
      "anonymous": false,
      "inputs": [
        {
          "indexed": true,
          "internalType": "address",
          "name": "owner",
          "type": "address"
        },
        {
          "indexed": true,
          "internalType": "address",
          "name": "spender",
          "type": "address"
        },
        {
          "indexed": false,
          "internalType": "uint256",
          "name": "value",
          "type": "uint256"
        }
      ],
      "name": "Approval",
      "type": "event"
    },
    {
      "anonymous": false,
      "inputs": [
        {
          "indexed": true,
          "internalType": "address",
          "name": "from",
          "type": "address"
        },
        {
          "indexed": true,
          "internalType": "address",
          "name": "to",
          "type": "address"
        },
        {
          "indexed": false,
          "internalType": "uint256",
          "name": "value",
          "type": "uint256"
        }
      ],
      "name": "Transfer",
      "type": "event"
    },
    {
      "inputs": [],
      "name": "DOMAIN_SEPARATOR",
      "outputs": [
        {
          "internalType": "bytes32",
          "name": "",
          "type": "bytes32"
        }
      ],
      "stateMutability": "view",
      "type": "function"
    },
    {
      "inputs": [
        {
          "internalType": "address",
          "name": "owner",
          "type": "address"
        },
        {
          "internalType": "address",
          "name": "spender",
          "type": "address"
        }
      ],
      "name": "allowance",
      "outputs": [
        {
          "internalType": "uint256",
          "name": "",
          "type": "uint256"
        }
      ],
      "stateMutability": "view",
      "type": "function"
    },
    {
      "inputs": [
        {
          "internalType": "address",
          "name": "spender",
          "type": "address"
        },
        {
          "internalType": "uint256",
          "name": "amount",
          "type": "uint256"
        }
      ],
      "name": "approve",
      "outputs": [
        {
          "internalType": "bool",
          "name": "",
          "type": "bool"
        }
      ],
      "stateMutability": "nonpayable",
      "type": "function"
    },
    {
      "inputs": [
        {
          "internalType": "address",
          "name": "account",
          "type": "address"
        }
      ],
      "name": "balanceOf",
      "outputs": [
        {
          "internalType": "uint256",
          "name": "",
          "type": "uint256"
        }
      ],
      "stateMutability": "view",
      "type": "function"
    },
    {
      "inputs": [],
      "name": "decimals",
      "outputs": [
        {
          "internalType": "uint8",
          "name": "",
          "type": "uint8"
        }
      ],
      "stateMutability": "view",
      "type": "function"
    },
    {
      "inputs": [
        {
          "internalType": "address",
          "name": "spender",
          "type": "address"
        },
        {
          "internalType": "uint256",
          "name": "subtractedValue",
          "type": "uint256"
        }
      ],
      "name": "decreaseAllowance",
      "outputs": [
        {
          "internalType": "bool",
          "name": "",
          "type": "bool"
        }
      ],
      "stateMutability": "nonpayable",
      "type": "function"
    },
    {
      "inputs": [
        {
          "internalType": "address",
          "name": "spender",
          "type": "address"
        },
        {
          "internalType": "uint256",
          "name": "addedValue",
          "type": "uint256"
        }
      ],
      "name": "increaseAllowance",
      "outputs": [
        {
          "internalType": "bool",
          "name": "",
          "type": "bool"
        }
      ],
      "stateMutability": "nonpayable",
      "type": "function"
    },
    {
      "inputs": [],
      "name": "name",
      "outputs": [
        {
          "internalType": "string",
          "name": "",
          "type": "string"
        }
      ],
      "stateMutability": "view",
      "type": "function"
    },
    {
      "inputs": [
        {
          "internalType": "address",
          "name": "owner",
          "type": "address"
        }
      ],
      "name": "nonces",
      "outputs": [
        {
          "internalType": "uint256",
          "name": "",
          "type": "uint256"
        }
      ],
      "stateMutability": "view",
      "type": "function"
    },
    {
      "inputs": [
        {
          "internalType": "address",
          "name": "owner",
          "type": "address"
        },
        {
          "internalType": "address",
          "name": "spender",
          "type": "address"
        },
        {
          "internalType": "uint256",
          "name": "value",
          "type": "uint256"
        },
        {
          "internalType": "uint256",
          "name": "deadline",
          "type": "uint256"
        },
        {
          "internalType": "uint8",
          "name": "v",
          "type": "uint8"
        },
        {
          "internalType": "bytes32",
          "name": "r",
          "type": "bytes32"
        },
        {
          "internalType": "bytes32",
          "name": "s",
          "type": "bytes32"
        }
      ],
      "name": "permit",
      "outputs": [],
      "stateMutability": "nonpayable",
      "type": "function"
    },
    {
      "inputs": [],
      "name": "symbol",
      "outputs": [
        {
          "internalType": "string",
          "name": "",
          "type": "string"
        }
      ],
      "stateMutability": "view",
      "type": "function"
    },
    {
      "inputs": [],
      "name": "totalSupply",
      "outputs": [
        {
          "internalType": "uint256",
          "name": "",
          "type": "uint256"
        }
      ],
      "stateMutability": "view",
      "type": "function"
    },
    {
      "inputs": [
        {
          "internalType": "address",
          "name": "recipient",
          "type": "address"
        },
        {
          "internalType": "uint256",
          "name": "amount",
          "type": "uint256"
        }
      ],
      "name": "transfer",
      "outputs": [
        {
          "internalType": "bool",
          "name": "",
          "type": "bool"
        }
      ],
      "stateMutability": "nonpayable",
      "type": "function"
    },
    {
      "inputs": [
        {
          "internalType": "address",
          "name": "sender",
          "type": "address"
        },
        {
          "internalType": "address",
          "name": "recipient",
          "type": "address"
        },
        {
          "internalType": "uint256",
          "name": "amount",
          "type": "uint256"
        }
      ],
      "name": "transferFrom",
      "outputs": [
        {
          "internalType": "bool",
          "name": "",
          "type": "bool"
        }
      ],
      "stateMutability": "nonpayable",
      "type": "function"
    }
  ],
  "bytecode": "0x6101406040527f6e71edae12b1b97f4d1f60370fef10105fa2faae0126114a169c64845d6126c9610120523480156200003757600080fd5b5060405162001276380380620012768339810160408190526200005a9162000335565b6040518060400160405280600a8152602001690546573742045524332360b41b81525080604051806040016040528060018152602001603160f81b8152506040518060400160405280600a8152602001690546573742045524332360b41b81525060405180604001604052806004815260200163151154d560e21b8152508160039080519060200190620000f09291906200028f565b508051620001069060049060208401906200028f565b5050825160209384012082519284019290922060c083815260e08290524660a0818152604080517f8b73c3c69bb8fe3d512ecc4cf759cc79239f7b179b0ffacaa9a75d522b39400f818a018190528183019890985260608101959095526080808601939093523085830152805180860390920182529390920190925280519401939093209092526101005250620001a090503382620001a7565b50620003b3565b6001600160a01b038216620002025760405162461bcd60e51b815260206004820152601f60248201527f45524332303a206d696e7420746f20746865207a65726f206164647265737300604482015260640160405180910390fd5b80600260008282546200021691906200034f565b90915550506001600160a01b03821660009081526020819052604081208054839290620002459084906200034f565b90915550506040518181526001600160a01b038316906000907fddf252ad1be2c89b69c2b068fc378daa952ba7f163c4a11628f55a4df523b3ef9060200160405180910390a35050565b8280546200029d9062000376565b90600052602060002090601f016020900481019282620002c157600085556200030c565b82601f10620002dc57805160ff19168380011785556200030c565b828001600101855582156200030c579182015b828111156200030c578251825591602001919060010190620002ef565b506200031a9291506200031e565b5090565b5b808211156200031a57600081556001016200031f565b6000602082840312156200034857600080fd5b5051919050565b600082198211156200037157634e487b7160e01b600052601160045260246000fd5b500190565b600181811c908216806200038b57607f821691505b60208210811415620003ad57634e487b7160e01b600052602260045260246000fd5b50919050565b60805160a05160c05160e0516101005161012051610e736200040360003960006105230152600061098a015260006109d9015260006109b401526000610938015260006109610152610e736000f3fe608060405234801561001057600080fd5b50600436106100ea5760003560e01c806370a082311161008c578063a457c2d711610066578063a457c2d7146101c3578063a9059cbb146101d6578063d505accf146101e9578063dd62ed3e146101fe57600080fd5b806370a082311461017f5780637ecebe00146101a857806395d89b41146101bb57600080fd5b806323b872dd116100c857806323b872dd14610142578063313ce567146101555780633644e51514610164578063395093511461016c57600080fd5b806306fdde03146100ef578063095ea7b31461010d57806318160ddd14610130575b600080fd5b6100f7610237565b6040516101049190610d68565b60405180910390f35b61012061011b366004610d3e565b6102c9565b6040519015158152602001610104565b6002545b604051908152602001610104565b610120610150366004610c8f565b6102df565b60405160128152602001610104565b610134610395565b61012061017a366004610d3e565b6103a4565b61013461018d366004610c3a565b6001600160a01b031660009081526020819052604090205490565b6101346101b6366004610c3a565b6103db565b6100f76103fb565b6101206101d1366004610d3e565b61040a565b6101206101e4366004610d3e565b6104a5565b6101fc6101f7366004610ccb565b6104b2565b005b61013461020c366004610c5c565b6001600160a01b03918216600090815260016020908152604080832093909416825291909152205490565b60606003805461024690610dec565b80601f016020809104026020016040519081016040528092919081815260200182805461027290610dec565b80156102bf5780601f10610294576101008083540402835291602001916102bf565b820191906000526020600020905b8154815290600101906020018083116102a257829003601f168201915b5050505050905090565b60006102d6338484610638565b50600192915050565b60006102ec84848461075c565b6001600160a01b0384166000908152600160209081526040808320338452909152902054828110156103765760405162461bcd60e51b815260206004820152602860248201527f45524332303a207472616e7366657220616d6f756e74206578636565647320616044820152676c6c6f77616e636560c01b60648201526084015b60405180910390fd5b61038a85336103858685610dd5565b610638565b506001949350505050565b600061039f610934565b905090565b3360008181526001602090815260408083206001600160a01b038716845290915281205490916102d6918590610385908690610dbd565b6001600160a01b0381166000908152600560205260408120545b92915050565b60606004805461024690610dec565b3360009081526001602090815260408083206001600160a01b03861684529091528120548281101561048c5760405162461bcd60e51b815260206004820152602560248201527f45524332303a2064656372656173656420616c6c6f77616e63652062656c6f77604482015264207a65726f60d81b606482015260840161036d565b61049b33856103858685610dd5565b5060019392505050565b60006102d633848461075c565b834211156105025760405162461bcd60e51b815260206004820152601d60248201527f45524332305065726d69743a206578706972656420646561646c696e65000000604482015260640161036d565b6001600160a01b0387811660008181526005602090815260408083205481517f00000000000000000000000000000000000000000000000000000000000000008185015280830195909552948b166060850152608084018a905260a084019490945260c08084018990528451808503909101815260e0909301909352815191909201209061058f82610a27565b9050600061059f82878787610a75565b9050896001600160a01b0316816001600160a01b0316146106025760405162461bcd60e51b815260206004820152601e60248201527f45524332305065726d69743a20696e76616c6964207369676e61747572650000604482015260640161036d565b6001600160a01b038a1660009081526005602052604090208054600101905561062c8a8a8a610638565b50505050505050505050565b6001600160a01b03831661069a5760405162461bcd60e51b8152602060048201526024808201527f45524332303a20617070726f76652066726f6d20746865207a65726f206164646044820152637265737360e01b606482015260840161036d565b6001600160a01b0382166106fb5760405162461bcd60e51b815260206004820152602260248201527f45524332303a20617070726f766520746f20746865207a65726f206164647265604482015261737360f01b606482015260840161036d565b6001600160a01b0383811660008181526001602090815260408083209487168084529482529182902085905590518481527f8c5be1e5ebec7d5bd14f71427d1e84f3dd0314c0f7b2291e5b200ac8c7c3b925910160405180910390a3505050565b6001600160a01b0383166107c05760405162461bcd60e51b815260206004820152602560248201527f45524332303a207472616e736665722066726f6d20746865207a65726f206164604482015264647265737360d81b606482015260840161036d565b6001600160a01b0382166108225760405162461bcd60e51b815260206004820152602360248201527f45524332303a207472616e7366657220746f20746865207a65726f206164647260448201526265737360e81b606482015260840161036d565b6001600160a01b0383166000908152602081905260409020548181101561089a5760405162461bcd60e51b815260206004820152602660248201527f45524332303a207472616e7366657220616d6f756e7420657863656564732062604482015265616c616e636560d01b606482015260840161036d565b6108a48282610dd5565b6001600160a01b0380861660009081526020819052604080822093909355908516815290812080548492906108da908490610dbd565b92505081905550826001600160a01b0316846001600160a01b03167fddf252ad1be2c89b69c2b068fc378daa952ba7f163c4a11628f55a4df523b3ef8460405161092691815260200190565b60405180910390a350505050565b60007f000000000000000000000000000000000000000000000000000000000000000046141561098357507f000000000000000000000000000000000000000000000000000000000000000090565b50604080517f00000000000000000000000000000000000000000000000000000000000000006020808301919091527f0000000000000000000000000000000000000000000000000000000000000000828401527f000000000000000000000000000000000000000000000000000000000000000060608301524660808301523060a0808401919091528351808403909101815260c0909201909252805191012090565b60006103f5610a34610934565b8360405161190160f01b6020820152602281018390526042810182905260009060620160405160208183030381529060405280519060200120905092915050565b60007f7fffffffffffffffffffffffffffffff5d576e7357a4501ddfe92f46681b20a0821115610af25760405162461bcd60e51b815260206004820152602260248201527f45434453413a20696e76616c6964207369676e6174757265202773272076616c604482015261756560f01b606482015260840161036d565b8360ff16601b1480610b0757508360ff16601c145b610b5e5760405162461bcd60e51b815260206004820152602260248201527f45434453413a20696e76616c6964207369676e6174757265202776272076616c604482015261756560f01b606482015260840161036d565b6040805160008082526020820180845288905260ff871692820192909252606081018590526080810184905260019060a0016020604051602081039080840390855afa158015610bb2573d6000803e3d6000fd5b5050604051601f1901519150506001600160a01b038116610c155760405162461bcd60e51b815260206004820152601860248201527f45434453413a20696e76616c6964207369676e61747572650000000000000000604482015260640161036d565b95945050505050565b80356001600160a01b0381168114610c3557600080fd5b919050565b600060208284031215610c4c57600080fd5b610c5582610c1e565b9392505050565b60008060408385031215610c6f57600080fd5b610c7883610c1e565b9150610c8660208401610c1e565b90509250929050565b600080600060608486031215610ca457600080fd5b610cad84610c1e565b9250610cbb60208501610c1e565b9150604084013590509250925092565b600080600080600080600060e0888a031215610ce657600080fd5b610cef88610c1e565b9650610cfd60208901610c1e565b95506040880135945060608801359350608088013560ff81168114610d2157600080fd5b9699959850939692959460a0840135945060c09093013592915050565b60008060408385031215610d5157600080fd5b610d5a83610c1e565b946020939093013593505050565b600060208083528351808285015260005b81811015610d9557858101830151858201604001528201610d79565b81811115610da7576000604083870101525b50601f01601f1916929092016040019392505050565b60008219821115610dd057610dd0610e27565b500190565b600082821015610de757610de7610e27565b500390565b600181811c90821680610e0057607f821691505b60208210811415610e2157634e487b7160e01b600052602260045260246000fd5b50919050565b634e487b7160e01b600052601160045260246000fdfea2646970667358221220366e17a11f579e02572adffbf1026167118b1eef19911cf09d250a5711f525e364736f6c63430008060033",
  "linkReferences": {},
  "deployedLinkReferences": {}
}